:100000000C94061D0C94371D0C94371D0C94371D51
:100010000C94371D0C94371D0C94371D0C94371D10
:100020000C94371D0C94371D0C94371D0C94371D00
:100030000C94371D0C94371D0C94371D0C94371DF0
:100040000C94371D0C9456A20C94371D0C94371D3C
:100050000C94371D0C94371D0C949C9B0C947AF5D2
:100060000C94371D0C94A65C0C949C5C0C94371D6E
:100070000C94371D0C94371D0C94371D0C94371DB0
:100080000C94FF500C94371D0C94371D0C94371DA5
:100090000C94371D0C94371D0C94371D0C94371D90
:1000A0000C94371D0C94371D0C94D1500C94371DB3
:1000B0000C94371D0C94371D0C94371D0C94371D70
:1000C0000C94371D0C94371D0C94371D0C94371D60
:1000D0000C94371D0C94371D0C94371D0C94371D50
:1000E0000C94371D084AD73B3BCE016E84BCBFFD44
:1000F000C12F3D6C74319ABD56833DDA3D00C77FF8
:1001000011BED9E4BB4C3E916BAAAABE0000008090
:100110003F05A84CCDB2D44EB93836A9020C50B91F
:10012000918688083CA6AAAA2ABE000000803F004B
:100130000D94700A0D948E0A4E414E494E49545901
:10014000494E46CDCCCC3D0AD7233C17B7D13877A2
:10015000CC2B329595E6241FB14F0A0000204100B8
:1001600000C84200401C4620BCBE4CCA1B0E5AAE02
:10017000C59D7400407A10F35A00A0724E18090011
:1001800010A5D4E80000E87648170000E40B5402FC
:100190000000CA9A3B000000E1F505000080969837
:1001A00000000040420F000000A086010000001087
:1001B0002700000000E803000000006400000000C9
:1001C000000A00000000000100000000002C76D8AA
:1001D00088DC674F0823DFC1DFAE59E1B1B796E590
:1001E000E3E453C63AE651997696E8E6C28426EBF4
:1001F000898C9B62ED407C6FFCEFBC9C9F40F2BA07
:10020000A56FA5F490055A2AF75C936B6CF9676D9E
:10021000C11BFCE0E40D47FEF520E6B500D0ED90F3
:100220002E0300943577050080841E080000204EC0
:100230000A000000C80C333333330F986E12831159
:1002400041EF8D2114893BE65516CFFEE6DB18D130
:10025000844B381BF77C1D901DA4BBE42420328402
:10026000725E228100C9F124ECA1E53D27434F4D88
:100270004D554E49434154494F4E004452595255F1
:100280004E004552524F525300494E464F0045438F
:10029000484F005041524F552E20005072696E74E5
:1002A00065722073746F7070656420647565207466
:1002B0006F206572726F72732E20466978207468A1
:1002C00065206572726F7220616E6420757365209F
:1002D0004D39393920746F20726573746172742ED0
:1002E000202854656D70657261747572652069733C
:1002F0002072657365742E205365742069742061C3
:10030000667465722072657374617274696E6729B0
:100310000A004E6F20436865636B73756D207769C3
:100320007468206C696E65206E756D6265722C2034
:100330004C617374204C696E653A20004E6F204307
:100340006865636B73756D2077697468206C696E7E
:1003500065206E756D6265722C204C617374204C43
:10036000696E653A2000636865636B73756D206D17
:1003700069736D617463682C204C617374204C69DF
:100380006E653A20004C696E65204E756D6265722F
:10039000206973206E6F74204C617374204C696EF9
:1003A00065204E756D6265722B312C204C61737423
:1003B000204C696E653A20004D3131300053657232
:1003C00069616C20737461747573206D69736D61FC
:1003D0007463680A00534420726561642065727218
:1003E0006F720A002121204B494C4C2063617573C8
:1003F0006564206279204B494C4C20627574746F9F
:100400006E2F70696E0A002121204B494C4C2063ED
:10041000617573656420627920746F6F206D7563F8
:100420006820696E6163746976652074696D652002
:100430002D2063757272656E7420636F6D6D616ED1
:10044000643A2000627573793A207061757365644F
:1004500020666F7220696E7075740A006275737918
:100460003A2070617573656420666F7220757365DC
:10047000720A00627573793A2070726F63657373E4
:10048000696E670A0043617274C3A36F2072656D61
:100490006F7669646F0043617274C3A36F20696EE5
:1004A00073657269646F004D3130303053004661BE
:1004B000766F72207265736574617200494D505297
:1004C0004553534F5241205041524F550025533A06
:1004D0002025530050415241444120444520454D80
:1004E000455247C38A4E434941005072696E746554
:1004F000722068616C7465642E206B696C6C2829AD
:100500002063616C6C6564210A005041524F552E86
:1005100020005072696E7465722073746F7070651C
:10052000642064756520746F206572726F72732E1B
:100530002046697820746865206572726F72206148
:100540006E6420757365204D39393920746F2072BF
:100550006573746172742E202854656D70657261C4
:10056000747572652069732072657365742E2053EB
:100570006574206974206166746572207265737495
:10058000617274696E67290A006563686F3A004595
:1005900072726F723A004F4646004F4E0042696CCD
:1005A000696E656172204C6576656C696E6720477F
:1005B0007269643A0A0021212053544F502063612C
:1005C0006C6C65642062656361757365206F66207D
:1005D000424C546F756368206572726F72202D20D3
:1005E000726573746172742077697468204D39394B
:1005F000390A0021212053544F502063616C6C65EF
:10060000642062656361757365206F6620424C5497
:100610006F756368206572726F72202D207265732A
:10062000746172742077697468204D3939390A0011
:100630004F46460A004661646520486569676874EC
:100640002000426564204C6576656C696E67200009
:100650004661696C656420746F20656E61626C65CB
:1006600020426564204C6576656C696E670A0049B6
:100670006E76616C6964206D6573682E0A00536F35
:100680006E64616E646F20706F6E746F002553200E
:1006900025692F2569002E0A002F0050726F6269AC
:1006A0006E67206D65736820706F696E742000201E
:1006B0002844525952554E29004732392041757409
:1006C0006F20426564204C6576656C696E67003FFB
:1006D00020284C2C522C462C4229206F7574206FF8
:1006E0006620626F756E64732E0A003F2856296576
:1006F00072626F7365206C6576656C20696D706CD5
:1007000061757369626C652028302D34292E0A00CA
:10071000426164205A2076616C75650A004E6F2034
:1007200062696C696E65617220677269640A002093
:10073000440020204D32303020530020284469737B
:1007400061626C6564293A0046696C616D656E741E
:100750002073657474696E67730020204D323031E8
:100760002058004D617820416363656C6572617447
:10077000696F6E2028756E6974732F73322900209B
:10078000204D3230332058004D6178206665656415
:1007900072617465732028756E6974732F732900F4
:1007A00020520020204D32303420500041636365D8
:1007B0006C65726174696F6E2028756E6974732F31
:1007C0007332292028503C7072696E742D61636306
:1007D000656C3E20523C726574726163742D616376
:1007E00063656C3E20543C74726176656C2D616368
:1007F00063656C3E29005741524E494E4721204CBB
:100800006F77205A204A65726B206D6179206C6584
:10081000616420746F20756E77616E7465642070FA
:1008200061757365732E0A00205400205300202048
:100830004D323035204200416476616E636564203C
:1008400028423C6D696E5F7365676D656E745F7499
:10085000696D655F75733E20533C6D696E5F6665BB
:100860006564726174653E20543C6D696E5F74729C
:100870006176656C5F66656564726174653E20587B
:100880003C6D61785F785F6A65726B3E20593C6DA4
:1008900061785F795F6A65726B3E205A3C6D617862
:1008A0005F7A5F6A65726B3E20453C6D61785F657B
:1008B0005F6A65726B3E29002044002049002020B9
:1008C0004D333031205000486F74656E64205049BC
:1008D000440020440020490020204D333034205073
:1008E00000426564205049440020580020204D619A
:1008F000783A2000200020204D696E3A2000203BED
:10090000200020204D3231312053004D3234532508
:100910006C6454256C64004739322E3945257300C8
:1009200047314625640047315A257346363030003A
:1009300047315825735925734633303030004D31D7
:100940003036502569532569004D313039532569BA
:10095000004D323030442573004739322E395A2544
:1009600073004D3432305325635A257300473238B3
:10097000523058590047315A2573463630300047B7
:1009800039322E395A2573004739322E3945300015
:100990004D313039532569004D31393053256900C7
:1009A0004D343230205330205A3000203B2000207C
:1009B000204D343133205300506F7765722D6C6FAA
:1009C0007373207265636F76657279003B20002037
:1009D000496E76616C6964206578747275646572BD
:1009E000200047322F4733206261642070617261BA
:1009F0006D65746572730A00446F726D696E646F21
:100A00002E2E2E005A2050726F6265205061737432
:100A1000204265640A00536F6E646120666F7261E4
:100A2000206461206D65736100205A3A20002059CE
:100A30003A200042656420583A20004D65736820D2
:100A4000706F696E74206F7574206F662072616EAE
:100A500067650A00436C6971756520706172612079
:100A60007265746F6D61720053656D206D6F76698C
:100A70006D656E746F00456E642066696C65206CF0
:100A80006973740A00426567696E2066696C652047
:100A90006C6973740A004E6F206D656469610A00A9
:100AA000286E6F2066696C65290043757272656EE9
:100AB000742066696C653A20005344207072696E38
:100AC00074696E67206279746520004E6F742053DC
:100AD00044207072696E74696E670A00256973003C
:100AE00025696D20256973002569682025696D20B9
:100AF00025697300256964202569682025696D20B2
:100B00002569730025697920256964202569682095
:100B100025696D20256973005072696E74207469AF
:100B20006D653A20006F6B006F6666008E02890269
:100B300082027B026D0244454255473A004D3131F5
:100B4000322053687574646F776E004D31313320F5
:100B5000530050533A300A0050533A310A0033449C
:100B6000205072696E746572204F46462E002F2FFA
:100B7000004D31343520533C696E6465783E206FFA
:100B80007574206F662072616E67652028302D3184
:100B9000290A0046523A0020466C6F773A20003A04
:100BA000200020536572766F2000206F7574206FCF
:100BB000662072616E67650A00536572766F200069
:100BC0004D34323120696E636F72726563742070C8
:100BD0006172616D657465722075736167650A0085
:100BE0004D65736820706F696E74206F7574206F27
:100BF000662072616E67650A00416C74657261C33C
:100C0000A7C3A36F2061706C696361646100457262
:100C1000723A20546F6F206661722100546F6F200A
:100C20006661722066726F6D207265666572656EB0
:100C3000636520706F696E740A00454550524F4DD0
:100C4000204F4B0A00290A0020746F20003F5A20D1
:100C50006F7574206F662072616E676520280029A9
:100C60000A0020746F20003F59206F7574206F6652
:100C70002072616E676520282D00290A0020746F9C
:100C800020003F58206F7574206F662072616E6778
:100C90006520282D004D383400446F6E6520707239
:100CA000696E74696E672066696C650A004D373736
:100CB000004D333100496E76616C6964206578744B
:100CC00072756465720A0020204D3230362058005B
:100CD000486F6D65206F6666736574004361703A96
:100CE000004D4541545041434B00434F4F4C4552FA
:100CF0005F54454D5045524154555245004348417B
:100D00004D4245525F54454D504552415455524510
:100D100000424142595354455050494E47004152B8
:100D20004353004D4F54494F4E5F4D4F4445530080
:100D3000544845524D414C5F50524F5445435449DD
:100D40004F4E004C4F4E475F46494C454E414D4536
:100D5000004155544F5245504F52545F53445F53D6
:100D600054415455530053445F575249544500521F
:100D70004550454154005344434152440050524F62
:100D80004D50545F535550504F525400484F535498
:100D90005F414354494F4E5F434F4D4D414E445385
:100DA00000454D455247454E43595F5041525345CA
:100DB0005200434153455F4C494748545F425249B2
:100DC0004748544E45535300544F47474C455F4C9A
:100DD000494748545300534F4654574152455F507A
:100DE0004F574552004255494C445F504552434588
:100DF0004E54004C4556454C494E475F4441544182
:100E0000005A5F50524F42450052554E4F555400C4
:100E10004155544F4C4556454C005052494E545F35
:100E20004A4F420050524F47524553530041555488
:100E30004F5245504F52545F54454D500041555408
:100E40004F5245504F52545F504F5300564F4C55E0
:100E50004D455452494300454550524F4D0042497B
:100E60004E4152595F46494C455F5452414E53469C
:100E700045520053455249414C5F584F4E5F584FC1
:100E80004646004649524D574152455F4E414D45F9
:100E90003A4D61726C696E20322E302E392E32201E
:100EA000284E6F7620313720323032312031303ABF
:100EB00033313A32352920534F555243455F434F22
:100EC00044455F55524C3A6769746875622E636F8A
:100ED0006D2F4D61726C696E4669726D77617265D6
:100EE0002F4D61726C696E2050524F544F434F4CDE
:100EF0005F56455253494F4E3A312E30204D4143B3
:100F000048494E455F545950453A33442050726920
:100F10006E7465722045585452554445525F434F94
:100F2000554E543A3120555549443A63656465320B
:100F30006132662D343161322D343734382D3962C7
:100F400031322D6335356336326633363766660A9D
:100F500000203B0020204D3835312058005A2D50BC
:100F6000726F6265204F66667365740020573A00A1
:100F7000526573667269616E646F2E2E2E00417128
:100F8000756563656E646F2E2E2E004531202553E6
:100F90000020573A004573667269616E646F206D78
:100FA0006573612E2E2E004171756563656E646FE9
:100FB000206D6573612E2E2E0023646566696E6553
:100FC0002044454641554C545F00626564004B64C3
:100FD00020004B6920004B7020005049442041758F
:100FE000746F74756E652066696E697368656421D7
:100FF0002050757420746865206C617374204B7088
:101000002C204B6920616E64204B6420636F6E73EB
:1010100074616E74732066726F6D2062656C6F7799
:1010200020696E746F20436F6E66696775726174B4
:10103000696F6E2E680A00504944204175746F74C0
:10104000756E65206661696C6564212074696D65E3
:101050006F75740A00504944204175746F74756E41
:1010600065206661696C6564212054656D706572E8
:10107000617475726520746F6F20686967680A0013
:10108000504944204379636C6573002553202569DA
:101090002F256900204B643A2000204B693A20003C
:1010A000204B703A200020436C61737369632050B9
:1010B0004944200A00204E6F206F76657273686F76
:1010C0006F740A002054753A2000204B753A2000B6
:1010D000206D61783A2000206D696E3A200020640E
:1010E0003A200020626961733A200025530050497C
:1010F00044204175746F74756E65207374617274E9
:101100000A00504944204175746F74756E652066FD
:1011100061696C6564212054656D706572617475D8
:10112000726520746F6F20686967680A00504944CF
:10113000204175746F74756E650050494420417587
:10114000746F74756E65206661696C6564212042F8
:101150006164206865617465722069640A00457283
:10116000723A207574663820666F6E74206E6F74E4
:1011700020696E697469616C697A65642E004572D4
:10118000723A207574663820666F6E74206E6F74C4
:1011900020696E697469616C697A65642E004572B4
:1011A000723A207574663820666F6E74206E6F74A4
:1011B00020696E697469616C697A65642E004D6599
:1011C000736100456E636C6F737572650025687599
:1011D0003A25303268750025303268753A2530324C
:1011E000687500256875642025303268753A2530A9
:1011F0003268750020202020202020002020202080
:10120000001FE0201020102010102010202010209F
:101210001030300840048003001FE03FF03FF03FF3
:10122000F01FE01FE03FF03FF03FF00FC0078003EA
:10123000003FFFF038007030FC3020FC10207810A8
:101240002030102C00D02E31D02F7BD02F7BD02EF1
:1012500031D02C00D020301020781020FC1030FC31
:10126000303800703FFFF03FFFF0380070318630BB
:101270002387102787902F87D02F03D0203010206E
:1012800078102078102030102F03D02F87D0278798
:10129000902387103186303800703FFFF01FFFF831
:1012A0001FFFF80410400208200208200410400824
:1012B00020801041001041000820800410400000F0
:1012C000001FFFF81FFFF8496D7072657373C3A3A9
:1012D0006F2041626F7274616461004D323500505D
:1012E000617573696E672E2E2E004D3234004545B0
:1012F00050524F4D2056657273696F6E2045727261
:101300006F7200454550524F4D20496E64657820FC
:101310004572726F7200454550524F4D2043524303
:10132000204572726F72003F0049676E6F726500F0
:101330005265736574617200496E696369617220F8
:10134000454550524F4D004469C3A26D6574726F9C
:101350002046696C2E00457874727573C3A36F20A4
:10136000656D206D6DC2B3002008204661746F72F8
:10137000002008204DC3A178002008204D696E0090
:101380004465736C696761646F004C696761646F81
:101390000054656D702E204175746F6DC3A1746922
:1013A000636100564465736C6F63616D656E746F45
:1013B000206D696E004D696E2056656C6F636974AF
:1013C00079004D617820452056656C004D6178208C
:1013D0005A2056656C004D617820592056656C0086
:1013E0004D617820582056656C004D61782045206D
:1013F000416363656C004D6178205A2041636365E9
:101400006C004D6178205920416363656C004D612B
:1014100078205820416363656C004D6F76696D6577
:101420006E746F20410052657472616972204100D0
:101430004163656C2E00617272616E63616461204C
:10144000564500617272616E6361646120565A0094
:10145000617272616E6361646120565900617272DB
:10146000616E6361646120565800436F6D70656EF4
:1014700073617220536F6E646120656D205A004362
:101480006F6D70656E73617220536F6E646120655D
:101490006D205900436F6D70656E73617220536FDC
:1014A0006E646120656D205800452F6D6D005061A0
:1014B00073736F205A2F6D6D00506173736F2059D5
:1014C0002F6D6D00506173736F20582F6D6D004349
:1014D0006F6E6669672E204176616EC3A761646195
:1014E000003F0043616E63656C617200496E696321
:1014F000696172004D34323800496E696369617206
:1015000020454550524F4D0046696C616D656E74C3
:101510006F0054656D706572617475726100506121
:1015200073736F2F6D6D00436F6D70656E736172B5
:1015300020536F6E646100417272616E6361646119
:10154000004163656C657261C3A7C3A36F005665F4
:101550006C6F63696461646500436F6D70656E7381
:101560006172206F726967656D00436F6E666967AF
:10157000757261C3A7C3A36F00000C0F00FE0702C2
:101580002503BB01FFFE0AFE08FE05080806000051
:1015900040F0C88888987810050808060000C0F850
:1015A0008888888888F80505050600012030F8300D
:1015B000200508080600002070F820202020E00503
:1015C00009090600FF2070A8A8B8888870200705C0
:1015D00005070001D86C366CD80509090600FFF82C
:1015E000A88888888888A8F8050A0A0600FE20507E
:1015F00050505088A8A8887003030306000340A039
:1016000040FFFFFFFFFFFFFFFFFFFFFFFFFFFFFFA9
:10161000FFFFFFFFFFFFFF0000000605FF010707B8
:10162000060200808080808000800303030601059D
:10163000A0A0A005060606000050F85050F850057E
:1016400009090600FF2070A8A07028A870200507CF
:1016500007060000C8C81020409898050707060034
:101660000040A0A040A89068010303060205808006
:10167000800309090601FF2040408080804040200F
:101680000309090601FF80404020202040408005DA
:10169000070706000020A8702070A8200505050691
:1016A00000012020F820200203030601FFC0408033
:1016B000050101060003F8020202060100C0C00590
:1016C00007070600000810102040408005070706A5
:1016D0000000708898A8C8887003070706010040BA
:1016E000C040404040E00507070600007088081031
:1016F0002040F8050707060000F808103008887039
:1017000005070706000010305090F8101005070775
:10171000060000F880F0080888700507070600003A
:10172000304080F0888870050707060000F8081030
:101730001020202005070706000070888870888820
:101740007005070706000070888878081060020599
:1017500005060100C0C000C0C00206060601FFC0A9
:10176000C000C040800305050601012040804020E4
:10177000050303060002F800F803050506010180D1
:1017800040204080050707060000708810202000D8
:10179000200507070600007088B8A8B88070050704
:1017A00007060000708888F8888888050707060003
:1017B00000F04848704848F00507070600007088A8
:1017C0008080808870050707060000F04848484878
:1017D00048F0050707060000F88080F08080F805D3
:1017E0000707060000F88080F08080800507070664
:1017F00000007088808098887005070706000088C0
:101800008888F8888888030707060100E040404080
:101810004040E005070706000038101010109060E7
:101820000507070600008890A0C0A090880507075C
:10183000060000808080808080F805070706000091
:1018400088D8A8888888880507070600008888C87F
:10185000A898888805070706000070888888888807
:1018600070050707060000F08888F0808080050773
:101870000706000070888888A8906805070706009A
:1018800000F08888F0A0908805070706000070889F
:101890008070088870050707060000F820202020C7
:1018A000202005070706000088888888888870053A
:1018B000070706000088888888505020050707061B
:1018C000000088888888A8A85005070706000088B7
:1018D0008850205088880507070600008888502017
:1018E000202020050707060000F80810204080F897
:1018F0000309090601FFE080808080808080E00588
:101900000707060000804040201010080309090660
:1019100001FFE020202020202020E0050303060016
:10192000052050880501010600FEF80303030601A7
:1019300005804020050505060000700878887805B8
:1019400007070600008080F0888888F005050506F6
:10195000000070808088700507070600000808787E
:10196000888888780505050600007088F080700575
:101970000707060000304840E040404005070706E2
:1019800000FE7088888878087005070706000080C8
:1019900080F0888888880307070601004000C0405F
:1019A0004040E00409090601FE100030101010103C
:1019B000906005070706000080808890E09088030B
:1019C0000707060100C04040404040E0050505060D
:1019D0000000D0A8A8A8A8050505060000B0C88882
:1019E0008888050505060000708888887005070747
:1019F0000600FEF0888888F080800507070600FE54
:101A000078888888780808050505060000B0C88031
:101A1000808005050506000078807008F00507073E
:101A20000600002020F820202018050505060000EB
:101A300088888898680505050600008888885020F1
:101A40000505050600008888A8A8500505050600BC
:101A50000088502050880507070600FE88888850B7
:101A6000204080050505060000F8102040F8030915
:101A7000090601FF20404040804040402001090904
:101A80000602FF80808080808080808003090906B4
:101A900001FF804040402040404080050303060095
:101AA0000248A890FFFFFFFFFFFFFFFFFFFFFFFFC0
:101AB000FFFFFFFFFFFFFFFFFFFFFFFFFFFFFFFF36
:101AC000FFFFFFFFFF0000000605FF0107070602FA
:101AD00000800080808080800507070600FF20705E
:101AE000A8A0A87020050707060000304840E04085
:101AF00048B0050505060000A8508850A80507074E
:101B00000600008850F820F8202001070706020090
:101B1000808080008080800408080601007080605A
:101B200090906010E0030101060107A00607070678
:101B300000007884B4A4B484780305050601046029
:101B4000A06000E00505050600002850A05028050B
:101B50000303060001F80808030101060103E0067B
:101B600007070600007884B4A4A484780501010660
:101B70000007F8040404060105609090600507075B
:101B80000600002020F8202000F8030505060104C7
:101B900040A02040E0030505060104C0204020C00D
:101BA0000303030601052040800507070600FE88A1
:101BB000888898E8808005080806000078E8E8E84A
:101BC00068282828020202060203C0C00302020697
:101BD00001FE20C003050506010440C04040E003AB
:101BE000050506010540A04000E0050505060000CA
:101BF000A0502850A0050A0A06000040C0485060C6
:101C000050B0507810050A0A06000040C0485060E5
:101C100050A8081038050A0A060000C0204830E025
:101C200050B0507810050707060000200020204023
:101C30008870050A0A060000402000708888F8882D
:101C40008888050A0A060000102000708888F88835
:101C50008888050A0A060000205000708888F888E5
:101C60008888050A0A06000068B000708888F8882D
:101C700088880509090600005000708888F888885F
:101C800088050A0A060000205020708888F8888895
:101C90008805070706000078A0A0F0A0A0B80509F5
:101CA000090600FE708880808088701060050A0A2E
:101CB000060000402000F88080F08080F8050A0AC5
:101CC000060000102000F88080F08080F8050A0AE5
:101CD000060000205000F88080F08080F805090997
:101CE0000600005000F88080F08080F8030A0A06A1
:101CF0000100804000E04040404040E0030A0A0606
:101D00000100204000E04040404040E0030A0A0655
:101D1000010040A000E04040404040E003090906C7
:101D20000100A000E04040404040E00507070600F9
:101D300000704848E8484870050A0A06000068B084
:101D4000008888C8A8988888050A0A0600004020EC
:101D50000070888888888870050A0A0600001020AC
:101D60000070888888888870050A0A06000020505C
:101D70000070888888888870050A0A06000068B0A4
:101D8000007088888888887005090906000050005E
:101D900070888888888870050505060001885020AD
:101DA00050880509090600FF087098A8A8A8C870FF
:101DB00080050A0A060000402000888888888888F4
:101DC00070050A0A06000010200088888888888824
:101DD00070050A0A060000205000888888888888D4
:101DE0007005090906000050008888888888887076
:101DF000050A0A06000010200088885020202020B4
:101E000004070706010080E0909090E08005070736
:101E1000060000708890A09088B0050808060000B1
:101E20004020007008788878050808060000102017
:101E300000700878887805080806000020500070B7
:101E40000878887805080806000068B000700878EF
:101E50008878050707060000500070087888780524
:101E600008080600002050207008788878050505CD
:101E7000060000702870A0780507070600FE70882D
:101E800080887010600508080600004020007088F7
:101E9000F080700508080600001020007088F080AF
:101EA000700508080600002050007088F08070055A
:101EB000070706000050007088F0807003080806CD
:101EC0000100804000C0404040E0030808060100D7
:101ED000204000C0404040E003080806010040A048
:101EE00000C0404040E0030707060100A000C040DA
:101EF0004040E00509090600005020500878888815
:101F0000887005080806000068B000B0C888888896
:101F100005080806000040200070888888700508C1
:101F200008060000102000708888887005080806E0
:101F3000000020500070888888700508080600009E
:101F400068B0007088888870050707060000500098
:101F500070888888700505050600012000F80020BB
:101F60000505050600007898A8C8F00508080600D1
:101F70000040200088888888700508080600001046
:101F80002000888888887005080806000020500016
:101F900088888888700507070600005000888888B0
:101FA0008870050A0A0600FE1020008888885020E4
:101FB00040800509090600FE8080F0888888F0804E
:101FC000800509090600FE5000888888502040805E
:101FD00041425300504C410053572D4D6F646500F2
:101FE0005265636F6C68657220424C546F7563680C
:101FF00000457374656E64657220424C546F75635E
:10200000680054657374617220424C546F75636844
:10201000005265696E696369617220424C546F7544
:102020006368004D65736100426F63616C005665C3
:102030006C2E2056656E746F696E686100436F6E1A
:10204000666967757261C3A7C3A36F005265737435
:102050006175726F2073656775726F004C657220D1
:10206000436F6E666967757261C3A7C3A36F005340
:10207000616C76617220436F6E666967757261C3C9
:10208000A7C3A36F00416A75737461722024004472
:1020900065736C696761646F004C696761646F00A8
:1020A00052656375706572617220496D70726573F7
:1020B00073C3A36F00424C546F75636800436F6D28
:1020C00070656E73617220536F6E646120656D2060
:1020D0005A00436F6E6669672E204176616EC3A712
:1020E000616461004D656E75207072696E63697020
:1020F000616C004D31303030005061726172206986
:102100006D7072657373C3A36F00436F6E74696EF5
:1021100075617220696D7072657373C3A36F00522D
:10212000656375706572617220496D707265737355
:10213000C3A36F003F00566F6C74617200506172F0
:1021400061720053656D2063617274C3A36F205385
:102150004400496D7072696D697220646F20534448
:102160000054726F636172205344004D3231004D50
:102170003830004465736C69676172004D38310016
:10218000436F6E666967757261C3A7C3A36F00541E
:10219000656D7065726174757261004D6F76696D01
:1021A000656E746F00436F6E74696E75617220693D
:1021B0006D7072657373C3A36F004C6967617200C1
:1021C000416A757374617200506172617220696D49
:1021D0007072657373C3A36F005061757361722071
:1021E000696D7072657373C3A36F00496E666F7219
:1021F0006D61C3A7C3B56573003F00496E6963692C
:10220000617220496D7072657373C3A36F0043617F
:102210006E63656C617200496D7072696D69720000
:1022200043616E6E6F7420656E74657220737562A3
:102230006469723A200002202E2E004D656E7520D2
:102240007072696E636970616C004D6F76696D655F
:102250006E746F004465736162696C69742E206DE1
:102260006F746F726573004D383400537561766911
:102270007A617220616C74757261004465736C6977
:102280006761646F004C696761646F004E697665D1
:102290006C61C3A7C3A36F204D657361004E69765F
:1022A000656C6172204D657361004732394E00499B
:1022B00072206E61206F726967656D205A00473227
:1022C000385A004972206E61206F726967656D200F
:1022D000590047323859004972206E61206F726987
:1022E00067656D20580047323858004972206120D8
:1022F0006F726967656D2058595A00473238004D32
:10230000656E75207072696E636970616C004578E6
:10231000747275736F72612024005072652D617143
:102320002E4D65736120240054656D706572617473
:1023300075726100D41FD01F4573667269617200A7
:102340005072652D61717565636572202400566554
:102350006C2E2056656E746F696E6861004D6573F2
:102360006100426F63616C004D656E75207072692B
:102370006E636970616C0050617373696E686F2081
:102380005A0056617AC3A36F0056656C2E205665BD
:102390006E746F696E6861004D65736100426F63B2
:1023A000616C0056656C6F636964616465004D65BE
:1023B0006E75207072696E636970616C006F706514
:1023C0006E00545249474745524544003A20007A2E
:1023D0005F6D696E00795F6D696E00785F6D696E23
:1023E000005265706F7274696E6720656E647374F5
:1023F0006F70207374617475730A0020746F6F209E
:102400006C6F6E6720657874727573696F6E20707B
:10241000726576656E7465640A00486F6D65202587
:102420007325732573205072696D6569726F0000A2
:1024300000000000000000000000005761726E699B
:102440006E673A20486F6D696E672042756D702027
:1024500044697669736F72203C20310A00020204DD
:102460000000484300004843000034430000A040FF
:102470000000A04000000040000048430000484326
:1024800000003443000000000000000000000000D5
:1024900053657474696E67732053746F726564005A
:1024A000290A002062797465733B206372632000FF
:1024B00053657474696E67732053746F726564201A
:1024C000280048617264636F6465642044656661D6
:1024D000756C742053657474696E6773204C6F61FA
:1024E0006465640A0020286D6D2900203B204C653E
:1024F00076656C696E67200020204D3432302053A1
:10250000004175746F20426564204C6576656C6986
:102510006E670020460020420020480020204D31F8
:1025200034352053004D6174657269616C206865B3
:102530006174757020706172616D6574657273008D
:10254000204A002020473239205720490020204DC2
:102550003134392043203B20556E69747320696EF5
:102560002043656C736975730A0054656D706572FC
:10257000617475726520556E69747300202047324E
:1025800031203B004C696E65617220556E69747331
:1025900000454550524F4D206461746173697A65FE
:1025A000206572726F722E0A00290A002062797407
:1025B00065733B2063726320002073746F726564DF
:1025C0002073657474696E677320726574726965CF
:1025D000766564202800202863616C63756C6174E3
:1025E000656429210A0020213D2000454550524FB5
:1025F0004D20435243206D69736D61746368202DD3
:10260000202873746F7265642920002053697A65ED
:102610003A2000496E6465783A2000000096430035
:10262000009643000020410000C841000021430003
:1026300000214300004844D8C13C43B80B0000B817
:102640000B00006400000010270000204D61726C38
:10265000696E3D563835290A00454550524F4D2088
:1026600076657273696F6E206D69736D61746368EE
:102670002028454550524F4D3D0024F4D43050C3DE
:102680008E20C2A24017828B7011127A910D816C3C
:10269000D90AA861E108C7586607615143061E4B75
:1026A0005D05C145A7041A411104093D980371391C
:1026B00031034036DB0265339102D4305402802E60
:1026C0001D02632CEE01752AC501B028A001102758
:1026D00081018F2564012B244B01E0223401AC21C0
:1026E0001F018D200D01801FFC00841EED00971D31
:1026F000DF00B81CD200E61BC600201BBC00641A19
:10270000B200B219A8000A19A0006A189900D117DE
:10271000910040178B00B516840031167E00B3156A
:1027200079003A157300C7146F0058146A00EE134D
:1027300066008813630025135E00C7125B006C12ED
:10274000570015125400C111510070114F00211192
:102750004B00D61049008D1047004610440002106F
:102760004200C00F4000800F3E00420F3C00060FA9
:102770003B00CB0E3800930E37005C0E3500270E61
:102780003400F30D3200C10D3100900D3000600DAA
:102790002E00320D2D00050D2C00D90C2B00AE0C97
:1027A0002900850C29005C0C2700350C27000E0C35
:1027B0002600E80B2400C40B2400A00B23007D0B93
:1027C00023005A0B2100390B2100180B2000F80AB6
:1027D0001F00D90A1E00BB0A1E009D0A1D00800AA8
:1027E0001D00630A1C00470A1B002C0A1B00110A6B
:1027F0001A00F7091A00DD091900C4091900AB090C
:102800001900920917007B091800630917004C0989
:10281000160036091600200916000A091500F508E9
:102820001500E0081400CC081400B8081400A4082F
:102830001400900813007D0812006B08130058085C
:102840001200460812003408110023081100120873
:10285000110001081100F0071000E0071000D00778
:102860001000C0071000B0070F00A107100091076B
:102870000E0083070F0074070F0065070E0057074F
:102880000E0049070E003B070D002E070E00200723
:102890000D0013070D0006070D00F9060C00ED06EC
:1028A0000D00E0060C00D4060C00C8060C00BC06A7
:1028B0000C00B0060C00A4060B0099060C008D0657
:1028C0000B0082060B0077060B006C060B006106FE
:1028D0000A0057060B004C060A0042060A0038069A
:1028E0000A002E060A0024060A001A060A0010062C
:1028F000090007060A00FD050900F4050900EB05BB
:102900000900E2050900D9050900D0050900C7053D
:102910000900BE050900B5050800AD050800A505BC
:1029200009009C050800940508008C050800840532
:1029300008007C050800740508006C0507006505A3
:1029400008005D050700560508004E05070047050D
:1029500007004005080038050700310507002A0573
:102960000700230507001C050600160507000F05D4
:1029700007000805060002050700FB040600F50431
:102980000700EE040600E8040600E2040700DB048A
:102990000600D5040600CF040600C9040600C304DF
:1029A0000600BD040600B7040600B1040500AC042F
:1029B0000600A6040600A00405009B04060095047A
:1029C0000500900406008A040500850405008004C3
:1029D00006007A04050075040500700405006B0408
:1029E000050066040500610405005C040500570449
:1029F0000500520405004D04050048040500430489
:102A000005003E0404003A040500350405003004C6
:102A100004002C04050027040400230405001E0400
:102A200004001A04040016040500110404000D0437
:102A30000400090405000404040000040400FC036D
:102A40000400F8030400F4030400F0030400EC03A2
:102A50000400E8030400E4030400E0030400DC03D2
:102A60000400D8030400D4030400D0030400CC0302
:102A70000400C8030300C503030024F404D9201B89
:102A8000C40C5C0E9804C4095F0265077101F4056B
:102A9000F900FB04B30048048700C1036900580330
:102AA000550003034500BE023A0084023100530280
:102AB0002A002902250004022000E4011C00C801AC
:102AC0001900AF011700980114008401130071016F
:102AD00010006101100051010E0043010D0036018C
:102AE0000B002B010B0020010B00150109000C014C
:102AF000090003010800FB000800F3000800EB00D8
:102B00000700E4000600DE000600D8000600D20040
:102B10000600CC000500C7000500C2000500BD008E
:102B20000400B9000400B5000400B1000400AD00C9
:102B30000400A9000400A5000300A20003009F00F8
:102B400004009B000300980003009500020093001E
:102B50000300900003008D0002008B00030088003A
:102B600002008600020084000300810002007F0052
:102B700002007D0002007B00020079000200770065
:102B80000100760002007400020072000100710072
:102B900002006F0002006D0001006C0002006A007C
:102BA0000100690002006700010066000100650085
:102BB0000100640002006200010061000100600089
:102BC00001005F0002005D0001005C0001005B008D
:102BD00001005A000100590001005800010057008F
:102BE000010056000100550001005400010053008F
:102BF000000053000100520001005100010050008C
:102C000001004F0001004E0000004E0001004D0089
:102C100001004C0001004B0000004B0001004A0085
:102C20000100490001004800000048000100470081
:102C3000010046000000460001004500000045007C
:102C40000100440001004300000043000100420075
:102C5000000042000100410000004100010040006E
:102C600001003F0000003F0001003E0000003E0068
:102C700001003D0000003D0001003C0000003C0060
:102C800000003C0001003B0000003B0001003A0056
:102C900000003A000100390000003900010038004E
:102CA0000000380000003800010037000000370045
:102CB000010036000000360000003600010035003B
:102CC0000000350000003500010034000000340031
:102CD0000000340001003300000033000000330026
:102CE000010032000000320000003200010031001B
:102CF0000000310000003100010030000000300011
:102D00000000300001002F0000002F0000002F0005
:102D100000002F0001002E0000002E0000002E00F9
:102D200001002D0000002D0000002D0000002D00EE
:102D300001002C0000002C0000002C0000002C00E2
:102D400001002B0000002B0000002B0000002B00D6
:102D500001002A0000002A0000002A0000002A00CA
:102D600001002900000029000000290000002900BE
:102D700000002900010028000000280000002800B1
:102D800000002800000028000100270000002700A4
:102D90000000270000002700000027000100260097
:102DA000000026000000260000002600000026008B
:102DB000010025000000250000002500000025007E
:102DC0000000250000002500010024000000240070
:102DD0000000240000002400000024000100230063
:102DE0000000230000002300000023000000230057
:102DF0000000230000002300010022000000220048
:102E0000000022000000220000002200000022003A
:102E1000010021000000210000002100000021002D
:102E2000000021000000210000002100010020001E
:102E30000000200000002000000020000000200012
:102E400000002000000020000000200001001F0002
:102E500000001F0000001F0000001F0000001F00F6
:102E600000001F0000001F0001001E0000001E00E7
:102E700000001E0000001E000000043700001E2994
:102E80000000511B00005810000010090000CC0485
:102E90000000780200004101000020436F756E744D
:102EA00020583A004D657361004531004500626568
:102EB00064002C2073797374656D2073746F707067
:102EC000656421204865617465725F49443A200059
:102ED0004171756563696D656E746F2066616C68BC
:102EE0006F750048656174696E67206661696C651D
:102EF00064004572726F3A54656D70204DC3A178BD
:102F0000696D61004D415854454D50207472696798
:102F10006765726564004572726F3A54656D702022
:102F20004DC3AD6E696D61004D494E54454D502005
:102F30007472696767657265640045534341504523
:102F40002054C389524D49434F00546865726D61E6
:102F50006C2052756E6177617900202F002042400D
:102F60003A0020403A007C3C3E5E2B3D3F2F5B5DAB
:102F70003B2C2A225C0043616E6E6F74206F70657B
:102F80006E207375626469722000534420496E6933
:102F900074204661696C0053442063617264206F41
:102FA0006B0A006F70656E526F6F74206661696C9A
:102FB00065640A00766F6C756D652E696E697420A4
:102FC0006661696C65640A004E6F2053442063613A
:102FD00072640A000A4D3234004D323320257300EA
:102FE0002E0A006F70656E206661696C65642C2026
:102FF00046696C653A200046696C652073656C65AE
:10300000637465640A002053697A653A2000466952
:103010006C65206F70656E65643A2000454E4420F3
:10302000535542524F5554494E450A002220706F65
:1030300073002220706172656E743A22005355420B
:10304000524F5554494E452043414C4C20746172B7
:103050006765743A220053756263616C6C204F7629
:103060006572666C6F77004578636565646564209A
:103070006D617820535542524F5554494E45206456
:10308000657074683A002E0A0044656C6574696F57
:103090006E206661696C65642C2046696C653A2017
:1030A0000046696C652064656C657465643A002F40
:1030B0006175746F25632E670057726974696E6756
:1030C00020746F2066696C653A20006672657368CB
:1030D00000646F696E67002066696C653A20004E77
:1030E0006F7720000000000000000000001C0000BE
:1030F00000000000000000000000000001FC0000D3
:1031000000000000000000000000000019FC0000AA
:10311000000000000000000000000001F9FC0000B9
:1031200000000000000000000000001FF9FC00008B
:1031300000000000000000000000007FF9FC00001B
:1031400000000000000000000000E07FF9FC00002B
:1031500000000000000000000000FC7FF9F8000003
:1031600000000000000000000000FF71F9F80000FE
:1031700000000000000000000000FF603BF80000BD
:1031800000000000000000000000FF401BF80000ED
:10319000000000000000000000007F001BF800009D
:1031A000000000000000000000007F100BF800008D
:1031B000000000000000000000007F300BF800005D
:1031C000000000000000000000007F3003F8000055
:1031D000000000000000000000007F3003F8000045
:1031E000000000000000000000007F3003F8000035
:1031F000000000000000000000003F3003F8000065
:10320000000000000000000000003F3003F8000054
:10321000000000000000000000003F3003F8000044
:10322000000000000000000000003F3003F8000034
:10323000000000000000000000003F1003F8000044
:10324000000000000000000000003F8007F00000C8
:10325000000000000000000000003F8007F00000B8
:10326000000000000000000000003F8007F00000A8
:10327000000000000000000000003FC017F0000048
:10328000000000000000000000001FD037F0000028
:10329000000000000000000000001FD877F00000D0
:1032A000000000000000000000001FD277F00000C6
:1032B000000000000000000000001FD677F00000B2
:1032C000000000000000000000001FD277F00000A6
:1032D000000000000000000000001FD877F0000090
:1032E000000000000000000000001FEC77F000006C
:1032F000000000000000000000001FEE37F000009A
:10330000000000000000000000001FEE17F00000A9
:10331000000000000000000000001FEE57F0000059
:10332000000000000000000000001FEE57F0000049
:10333000000000000000000000000FC007F00000C7
:10334000000000000000000000000F0001F000007D
:10335000000000000000000000000E0000F000006F
:10336000000000000000000000000E0000E000006F
:10337000000000000000000000000E0000E000005F
:10338000000000000000000000000F0001E000004D
:10339000000000000000000000000FE007E0000057
:1033A000000000000000000000000FF7F7E0000040
:1033B0000000000000000000000007F7F00000001F
:1033C0000000000000000000000007F3F000000013
:1033D0000000000000000000000003F000000000FA
:1033E00000000000000000000000000000000000DD
:1033F00000000000000000000000000000000000CD
:1034000000000000000000000000000000000000BC
:103410000000000000000000000C06000030010069
:103420000000000000000000000C060000300280D8
:103430000000000000000000000006000030044012
:1034400000000000000000000C6C7E1C0C30C180ED
:1034500000000000000000000C6CFE3E3F3387C0FF
:103460000000000000000000064CC66373B78C60CB
:10347000000000000000000006CDC66361BCCC6007
:10348000000000000000000006CDC67F61B8CFE05C
:103490000000000000000000038DC66061B06C00F9
:1034A0000000000000000000038CFE3373B0666073
:1034B0000000000000000000010C7C1E3F3063C0D3
:1034C0000000000000000000000000000C004000B0
:1034D0000000000000000000000000000000C0002C
:1034E000000000006D61726C696E66772E6F726706
:1034F00000322E302E392E32001FFFFFFFFFFFFF5C
:10350000600000000001FF400000000000FF80009C
:10351000000000007F83CF00000C303F87FF800059
:103520000C301F867980000C000F8C30C7838C30E4
:10353000E78C30CFC7CC31F38C30DCECEC33B98C7A
:1035400030D86C6C33198C30D06C0C33198C30D86B
:103550006C0C33198C30DC6C0E3B198C30CF7C0733
:103560009F198C30C77C038F1940000000000002B7
:10357000600000000000061FFFFFFFFFFFF81000C3
:10358000AA03F0013A019002220130031001D00396
:1035900002017004F7001005ED00B005E5005006CB
:1035A000DD00F006D7009007D1003008CC00D0082D
:1035B000C7007009C300100ABE00B00ABB00500B60
:1035C000B700F00BB300900CB000D00DAA00100FA4
:1035D000A5005010A00090119B00D0129600B014CE
:1035E000900090168B0070188500501A8000301CD7
:1035F0007B00B01E750030216F00B02369003026BB
:10360000640010285F00902A5A00702C5500F02E9C
:103610004F0070314800B0324500F0334100703641
:103620003900103737005038330090392D00D03A28
:103630002700B03C1C00503D1700F03D1100903EAB
:103640000900D03FE5FF2020506C616E6E6572422C
:10365000756666657242797465733A200020467219
:103660006565204D656D6F72793A200020436F6D5E
:1036700070696C65643A204E6F76203137203230A5
:1036800032310A00204C6173742055706461746596
:10369000643A20323032312D30392D3033207C20C5
:1036A000417574686F723A20284D617877656C6C4B
:1036B0002C2031352F31312F32303231290A004D53
:1036C00061726C696E20322E302E392E320A002043
:1036D000536F6674776172652052657365740A0072
:1036E000205761746368646F672052657365740A5C
:1036F000002042726F776E206F757420526573657B
:10370000740A002045787465726E616C205265738E
:1037100065740A00506F77657255700A00737461A2
:1037200072740A004732385859004D313030310038
:103730006F6B006572726F722077726974696E6761
:1037400020746F2066696C650A00446F6E65207393
:103750006176696E672066696C652E0A004D3239A4
:103760000046696E7320646520637572736F00256F
:103770005320256320256320256320256300205ADC
:103780003A0020593A0020583A00656E6473746F0D
:103790007073206869743A200000000A0B02090C5B
:1037A0000D0E0807030401000000000000000000E7
:1037B0000000000000000000000000000000000009
:1037C00000000000001211100000000000000000C6
:1037D00000000000000000000000000000000000E9
:1037E0004D6F7665722025736D6D004D6F76657235
:1037F00020302E316D6D004D6F76657220316D6D0C
:10380000004D6F7665722031306D6D004D6F7665BD
:1038100072206569786F004D6F7665722045787407
:103820007275736F72004D6F766572205A004D6F1E
:103830007665722059004D6F76657220580046619A
:103840006C686120616F20697220C3A0206F72696B
:1038500067656D00FFFFFF50726F62696E672046FB
:1038600061696C65640A0046616C686120616F2063
:10387000736F6E64617200205A3A200020593A201A
:103880000042656420583A20003344205072696E2B
:103890007465722070726F6E746F2E00496D707255
:1038A000696D696E646F2E2E2E00496D707265739E
:1038B00073C3A36F205061757361646100220A00B5
:1038C000556E6B6E6F776E20636F6D6D616E643ACF
:1038D000202200204500205A0020590020204D3988
:1038E0003220580053746570732070657220756EB5
:1038F00069740020746F6F206C6F6E672065787438
:10390000727573696F6E2070726576656E7465642A
:103910000A006F6B0A00526573656E643A200020DE
:10392000453A00205A3A0020593A00583A0000001F
:103930002200250028002B002E0031003400020157
:103940000000050108010B010000210024002700F0
:103950002A002D003000330001010000040107019E
:103960000A01050505050705080808080202020204
:103970000A0A08080404040401010101010101010B
:103980000303030303030303040707070C0C0C0CD6
:103990000C0C0C0C020202020606060606060606BF
:1039A0000B0B0B0B0B0B0B0B01021020200808104C
:1039B000204010204080020102010804020101029F
:1039C0000408102040808040201008040201800478
:1039D00002018040201008040201080402010102D3
:1039E0000408102040800102040810204080457225
:1039F000726F722077726974696E6720746F2045E8
:103A00004550524F4D210A009A00980011241FBEC4
:103A1000CFEFD1E2DEBFCDBF00E00CBF13E0A0E0EE
:103A2000B2E0E6EAFFE302E00BBF02C007900D92AE
:103A3000A036B107D9F726E1A0E6B3E001C01D9298
:103A4000AC30B207E1F71DE1C5E0DDE100E006C002
:103A500021970109802FFE010F94791CC430D107F2
:103A600080E00807A9F70F948E0B0D94C21F0C94E9
:103A70000000CF93DF93EC01CB01BA010F94B8158E
:103A800020E030E040E251E40F945E1D68837983CA
:103A90008A839B83DF91CF910895CF93DF93EC01CD
:103AA000CB01BA010F94B81520E030E040E251E4B8
:103AB0000F945E1D688379838A839B83DF91CF9106
:103AC0000895CF93DF93EC01CB01BA010F94B815A1
:103AD00020E030E048EC52E40F945E1D6883798367
:103AE0008A839B83DF91CF910895CF93DF93EC017D
:103AF000CB01BA010F94B81520E030E048EC52E455
:103B00000F945E1D688379838A839B83DF91CF91B5
:103B10000895CF93DF93EC01CB01BA010F94B81550
:103B2000688379838A839B83DF91CF910895CF93B4
:103B3000DF93EC01CB01BA010F94B8156883798348
:103B40008A839B83DF91CF910895CF93DF93EC011C
:103B5000CB01BA010F94B8152AE037ED43E25DE3DB
:103B60000F945E1D0F94CB1D688379838A839B839A
:103B7000DF91CF910895CF93DF93EC01CB01BA0190
:103B80000F94B8152AE037ED43E25DE30F945E1D14
:103B9000688379838A839B83DF91CF910895CF9344
:103BA000DF93EC01CB01BA010F94B8150F94C61D39
:103BB00079836883DF91CF910895CF93DF93EC01F0
:103BC000CB01BA010F94B81520E030E04AE754E485
:103BD0000F945E1D688379838A839B83DF91CF91E5
:103BE0000895FC0184910895FC0180810895FC01F1
:103BF000A081B1811C92A281B3818C918F5F8C9343
:103C00000280F381E02D90818CE0989F800D11243B
:103C1000EBE5F3E113AE84AF0895009751F0FC019A
:103C200080E09191992331F0907C9038D1F38F5FAF
:103C3000F8CF80E0089511989091020187FD90954A
:103C400091709093000100C000C0119A00C000C0A4
:103C500011989091020186FD9095917090930001CA
:103C600000C000C0119A00C000C0119890910201DC
:103C700085FD909591709093000100C000C0119A4D
:103C800000C000C011989091020184FD9095917040
:103C90009093000100C000C0119A00C000C01198AC
:103CA0009091020183FD909591709093000100C066
:103CB00000C0119A00C000C011989091020182FDCD
:103CC000909591709093000100C000C0119A00C0BF
:103CD00000C011989091020181FD90959170909390
:103CE000000100C000C0119A00C000C0119880916E
:103CF000020181708093000100C000C0119A00C0D1
:103D000000C0089590E080E00895CF93DF93DB0139
:103D1000F9019C919130C1F0943080F094509C93C3
:103D20008830D1F480819181009771F0019791835F
:103D30008083480F591FEA01188206C08C3539F478
:103D40009C5F9C93943041F4DF91CF9108958B3325
:103D500039F781E08C93F8CF20813181B9016F5F11
:103D60007F4F71836083420F531FEA0188838081F4
:103D700091818F3591056CF7E7CF0F931F9381E009
:103D80000091A0131091A1132091A2133091A313BD
:103D900040919C1350919D1360919E1370919F13BD
:103DA000041715072607370708F480E01F910F91C5
:103DB000089590E080E00895282F9091680783305F
:103DC00021F495FD0FC094FD0FC0892F90E0B0E065
:103DD000A0E004C0B695A795979587952A95D2F748
:103DE0008170089581E0089580E008958091CF0466
:103DF00084FD0BC08091D10487FD07C09091D2044F
:103E0000937081E019F480E0089581E008952FEB2C
:103E1000280F2A3108F047C0E22FF0E08091CF044C
:103E20009091D004A091D104B091D20404C0B69571
:103E3000A795979587952A95D2F780FD02C0817046
:103E40000895EB54FB4FE081EE2341F1809166072A
:103E500090916707E80FF92FF11D808190ED980F81
:103E60009A3030F08E3251F4818180538A3098F448
:103E7000F093AA04E093A90481E008958D3211F033
:103E80008B3249F4818190ED980F9A3088F38E320D
:103E900011F48281EACFF0E0E0E0EACF1092AA04C8
:103EA0001092A904E9CF80E00895B1DF882341F0A2
:103EB00081E02091A9043091AA04232B09F480E029
:103EC0000895269A2E981092010708952F923F92F6
:103ED0004F925F926F927F928F929F92AF92BF921A
:103EE000CF92DF92EF92FF920F931F93CF93DF93C6
:103EF000CDB7DEB72E970FB6F894DEBF0FBECDBF9D
:103F0000F82EE62E042F122F282F30E03A8729872B
:103F1000862F90E09C878B87220F331FA985BA8557
:103F20002A0F3B1F3E872D87FC01E20FF31FEE0F88
:103F3000FF1FEE0FFF1FE957FA4F608171818281E9
:103F400093819B01AC010F94311F882309F440C178
:103F5000802F8F0D612F6E0D282F30E0F901EE0FAD
:103F6000FF1FE20FF31FAB85BC85AE0FBF1FAA0F6B
:103F7000BB1FAA0FBB1FA957BA4FAC901196BC909C
:103F800011971296CC9012971396DC90080F802F01
:103F900090E0AC01440F551F480F591FAB85BC85FD
:103FA000A40FB51FAA0FBB1FAA0FBB1FA957BA4F5B
:103FB000EC901196FC90119712960C911297139613
:103FC0009C90862F90E0AD85BE85A80FB91FAA0FE3
:103FD000BB1FAA0FBB1FA957BA4F8C9011967C909C
:103FE000119712966C90129713965C90610F70E087
:103FF0002D853E85260F371F220F331F220F331FBB
:1040000029573A4F3E872D87D9014C9011963C9005
:10401000119712961C91129713962C90E80FF91F86
:10402000EE0FFF1FEE0FFF1FE957FA4FB081B98364
:1040300021812A8332813B8383818C83FA01E60FBD
:10404000F71FEE0FFF1FEE0FFF1FE957FA4F90818A
:104050009D83A181AE83B281BF832381288797018D
:10406000402F592DB701802F992D0F94311F882390
:1040700021F0E12CF12C00E0912C9501A601B50175
:10408000C6010F94311F882319F05701C02ED92C77
:10409000242D332D412F522D642D732D812F922DE0
:1040A0000F94311F882321F0412C312C10E0212C5A
:1040B000282D372D462D552D682D772D862D952DA4
:1040C0000F94311F882321F0842C732C612E522CE5
:1040D0002D813E814F8158856D817E818F819885AC
:1040E0000F94311F882321F01D821E821F821886A3
:1040F00029813A814B815C8169817A818B819C81A4
:104100000F94311F882341F03D8139838E818A834A
:104110009F819B83A885AC83E985FA85EE0FFF1FFD
:1041200029853A85E20FF31F8B859C85E80FF91FDF
:10413000EE0FFF1FEE0FFF1FE957FA4FFA87E987CF
:104140009501A601B501C6010F94821C9701402F6D
:10415000592D0F94811C6B017C01282D372D462D84
:10416000552D682D772D862D952D0F94821C242D8D
:10417000332D412F522D0F94811C9B01AC01C7019F
:10418000B6010F94821C6B017C0129813A814B811D
:104190005C8169817A818B819C810F94821C2D8145
:1041A0003E814F8158850F94811C9B01AC01C70152
:1041B000B6010F94821C20E030E040E450E40F94FC
:1041C0005E1DA985BA856D937D938D939C931397FE
:1041D0002E960FB6F894DEBF0FBECDBFDF91CF9104
:1041E0001F910F91FF90EF90DF90CF90BF90AF9015
:1041F0009F908F907F906F905F904F903F902F9007
:104200000895CF92DF92EF92FF92CF93DF9300D089
:104210001F92CDB7DEB76B017C0120E030E0A90131
:104220000F94B21587FD1BC06DEB77E386E095E335
:10423000A70196010F94821C69837A838B839C83E8
:10424000CE0101960E94F2BF0F900F900F900F9039
:10425000DF91CF91FF90EF90DF90CF9008956DEBBD
:1042600077E386E095EBE4CF0F94B8152AE037EDBD
:1042700043E25DE30F945E1DC4CF0F94B815C1CF28
:104280000F94B81520E030E040E251E40F945E1D39
:104290000C94B9D10F94B81520E030E040E251E41D
:1042A0000F945E1D0C9438D10F94B81520E030E0C7
:1042B00048EC52E40F945E1D0C9482D00F94B81514
:1042C0000C9438CA0F94B8152AE037ED43E25DE349
:1042D0000F945E1D0C9469D00F94B81520E030E067
:1042E00048EC52E40F945E1D0C94C1CC0F94B815A9
:1042F0000F94C61DCB010C94F4C0CF92DF92EF92C5
:10430000FF92CF93DF9300D01F92CDB7DEB70F940B
:10431000B81520E030E04AE754E40F945E1D6B01CD
:104320007C0120E030E0A9010F94B2152DEB37E3BA
:1043300046E055E387FF04C02DEB37E346E055EB3D
:10434000C701B6010F94821C69837A838B839C8397
:10435000CE0101960E94EDF00F900F900F900F90FC
:10436000DF91CF91FF90EF90DF90CF9008950C9464
:1043700090A70C9490A70C9490A70C9490A70C94E1
:1043800042A70C9442A70C9442A70C9442A763E95D
:1043900072E084E690E00E9420C36AEB72E084E65B
:1043A00090E00C9420C38111F2CF68EB71E084E1BE
:1043B00090E00C9420C30E9446A4F5CF8091650242
:1043C000882341F0609166057091670541E081E0C6
:1043D0000C943FEF0895CF93DF93C0917607D0916F
:1043E0007707209721F16091720770917307809190
:1043F0007407909175070F94C61D6E5F7F4F2497C9
:104400006C177D07A4F47093BD056093BC050E94F2
:104410004EF57E518B4F9F4F6093BE057093BF0545
:104420008093C0059093C105DF91CF9108951092BC
:10443000BE051092BF051092C0051092C105F4CFC1
:104440000E9415D9B0CF0E94D3BBA1CFBF92CF920B
:10445000DF92EF92FF920F931F93CF93DF936B0145
:10446000E9014A3009F4DFC0453109F08AC0DB01B7
:104470001296ED91FC911281C681D7818091020143
:10448000809582708093000100C0000086E290E079
:104490000197F0F7012F0295007F20E1B22EB10EB7
:1044A00088EFC9DB00C0000086E290E00197F0F7DA
:1044B000103208F0A5C0812F80778068BCDB802F88
:1044C000BADB00C0000086E290E00197F0F780E8D8
:1044D000B2DB80E0B0DB00C0000086E290E0019734
:1044E000F0F78AEFA8DB00C0000086E290E00197B9
:1044F000F0F77E01B0E1EB0EF11C8881807F9BDB41
:1045000089918295807F97DBCE15DF05B1F700C0DA
:10451000000086E290E00197F0F71F5F005F1B113B
:10452000BFCF80910201827080930001D601129664
:10453000ED91FC9180819281980F92832181921755
:1045400008F0FDC194819F5F94839381890F821746
:1045500010F08FEF820F8383458150E0440F551F89
:1045600070E060E0868197810F946E1F81E0DF919B
:10457000CF911F910F91FF90EF90DF90CF90BF9060
:104580000895FB0102811381423309F4DAC108F472
:10459000E2C1463409F4CFC1473409F4D7C14B33E3
:1045A00029F789812B81D80112966C911297139665
:1045B0004C91213009F414C2233009F0F5C138EFD1
:1045C000380F582F91E0431708F490E041E053175B
:1045D00008F040E031E0561708F430E0592F542B32
:1045E000352319F4942309F4C1CFFA8030E0F9019E
:1045F000EA57FD4FD0802E573D4FF901E080EDC1C5
:1046000080EE810F8068807F16DB812F8295807F0E
:1046100012DB00C0000086E290E00197F0F780E82E
:104620000ADB80E857CF809101018260809301010D
:10463000809102018270809300018091010181606C
:104640008093010180910201817080930001099A99
:10465000119A80910201809582708093000100C0C0
:10466000000086E290E00197F0F788E790E0CEE95D
:10467000DFE0FE013197F1F70197D9F788EFDBDA38
:1046800000C0000086E290E00197F0F780E2D3DA04
:1046900080E0D1DA00C0000086E290E00197F0F7F8
:1046A00080E0C9DA80E8C7DA00C0000086E290E066
:1046B0000197F0F780E0BFDA80E1BDDA00C00000CA
:1046C00086E290E00197F0F7CE010197F1F7CE0175
:1046D0000197F1F7CE010197F1F7CE010197F1F7BC
:1046E000CE010197F1F7CE010197F1F7CE010197C5
:1046F000F1F7CE010197F1F7CE010197F1F7CE0165
:104700000197F1F7CE010197F1F7CE010197F1F78B
:10471000CE010197F1F7CE010197F1F72197F1F75B
:1047200080E289DA80E487DA00C0000086E290E067
:104730000197F0F780E27FDA80E67DDA00C00000C2
:1047400086E290E00197F0F7D0E0C0E08C2F807710
:10475000806871DA8D2F6FDA00C0000086E290E089
:104760000197F0F780E867DA80E065DA00C00000C2
:1047700086E290E00197F0F78AEF5DDA00C0000072
:1047800086E290E00197F0F790E2119880910201A3
:1047900081708093000100C000C0119A00C000C069
:1047A00011988091020181708093000100C000C0C7
:1047B000119A00C000C0119880910201817080930D
:1047C000000100C000C0119A00C000C01198809183
:1047D000020181708093000100C000C0119A00C0E6
:1047E00000C011988091020181708093000100C087
:1047F00000C0119A00C000C0119880910201817020
:104800008093000100C000C0119A00C000C0119840
:104810008091020181708093000100C000C0119A54
:1048200000C000C011988091020181708093000146
:1048300000C000C0119A00C000C011988091020110
:1048400081708093000100C000C0119A00C000C0B8
:1048500011988091020181708093000100C000C016
:10486000119A00C000C0119880910201817080935C
:10487000000100C000C0119A00C000C011988091D2
:10488000020181708093000100C000C0119A00C035
:1048900000C011988091020181708093000100C0D6
:1048A00000C0119A00C000C011988091020181706F
:1048B0008093000100C000C0119A00C000C0119890
:1048C0008091020181708093000100C000C0119AA4
:1048D00000C000C011988091020181708093000196
:1048E00000C000C0119A00C000C000C00000E6E295
:1048F000F0E03197F0F7915009F047CF88EF9BD95E
:1049000000C0000086E290E00197F0F7CF5FD05F33
:10491000C03209F01BCF80E08ED980EC8CD900C06A
:10492000000086E290E00197F0F78091020182702A
:10493000809300011BCEF8018581888317CE80E02B
:1049400016CEB901C8010E94C4F510CED801119647
:104950008C9188830BCE443191F0473109F006CE1B
:104960001882D80112968C911297898315968C9192
:10497000159781508A8313968C918B83F7CDD8013C
:1049800015964C91159750E0440F551F70E060E06C
:1049900016968D919C910F946E1FF8011282808162
:1049A000815083831482E2CD481708F4DFCD861747
:1049B00008F4DCCDFA80E12CD12C243070F416CE32
:1049C000BE01C8010E94C4F5898198819D0D98831C
:1049D0008E0D8983FF0C09F4C9CDF7FEF6CFF0CF19
:1049E00058E0580F382FEECDEF92FF920F931F93A0
:1049F000CF93DF93EC018B017A018A859B85861723
:104A0000970731F0888199810E94F9F71B870A87FF
:104A1000B701888199810E94E5EF2E813F81820F45
:104A2000932F911D9F838E8390E080E0DF91CF9143
:104A30001F910F91FF90EF9008959F92AF92BF92B8
:104A4000CF92DF92EF92FF920F931F93CF93DF935A
:104A5000EC018B01942EA52E8A859B8586179707DE
:104A600031F0888199810E94F9F71B870A87888530
:104A70009985019649F5BC800A818E81080FC8800E
:104A8000D980D6015596ED91FC91C6011995B80EC5
:104A9000E92CFA2C10E0F70121917F01211127C0A8
:104AA0008E819F81810F911D9F838E8390E080E096
:104AB000DF91CF911F910F91FF90EF90DF90CF90FA
:104AC000BF90AF909F9008950E811F81692D7A2D20
:104AD000888199810E94E5EF800F912F911D288593
:104AE00039852817390738F681E090E0E1CF4B2D62
:104AF000602FC6010E9451F8080F180FCCCFDF922B
:104B0000EF92FF920F931F93CF93DF93EC01D62E7A
:104B10001CAD0BAD7C0184E0E80EF11CE98DFA8D33
:104B2000C7011995412F480F2D2D602FC7010E94F5
:104B300051F89BAD890F8BAF81E090E0DF91CF9171
:104B40001F910F91FF90EF90DF900895CF93809188
:104B5000DE04811154C01092961310929713109294
:104B600098131092641310926313109266131092AC
:104B700065131092681381E08093671382E280933B
:104B8000691310926E1310926D13E2E8F3E120E9BD
:104B900033E18FEF81932E173F07E1F7C1E0C09318
:104BA0007F1326EE39ED3093751320937413C09361
:104BB0007613109277131092781390E490937913F0
:104BC00010927A1325EE39ED3093911320939013C0
:104BD0002EE132E0309362132093611397E19093BA
:104BE000861391E19093871390E1909384138093BF
:104BF0008313809382130E9402F6C093DE0481E047
:104C00008093E0048EEB91E19093BF128093BE12EB
:104C10001092C1121092C012CF910895CF92DF92DC
:104C2000EF92FF920F931F93CF93DF93CDB7DEB731
:104C30002C970FB6F894DEBF0FBECDBFF090961341
:104C4000E09097132091E00421111DC04EE751E13F
:104C50006E2D8F2D0E94BCF890E080E0F80EF0924F
:104C60009613E092971399272C960FB6F894DEBF0F
:104C70000FBECDBFDF91CF911F910F91FF90EF90AD
:104C8000DF90CF900895C0906313D09064132FE508
:104C900033E13A8329832F2D30E03C832B832E2D63
:104CA00030E03E832D8318861F827A8769871C86B1
:104CB0001B860DE115E29E012F5F3F4F41EF5DE145
:104CC000BC01C6010E94C3E8B6018FE593E10E94D2
:104CD000F9F78F819885C2CFAB01BC014093A01337
:104CE0005093A1136093A2137093A31385E095E1F1
:104CF0000C946EFE8091A9049091AA04009731F063
:104D00004AE050E070E060E00D94D31360E070E0A2
:104D1000CB0108958091A9049091AA04009731F0E5
:104D20004AE050E070E060E00D94A61260E070E0B0
:104D3000CB010895EFDF97FD0AC0ECDF6F3F7105EF
:104D40008105910509F02CF4E5DF862F089580E0B8
:104D500008958FEF0895CF93C62FA7D8882311F019
:104D6000CF91E8CF8C2FCF9108958091A904909195
:104D7000AA04892B39F0DEDF91E0811101C090E0B7
:104D8000892F089591E0FCCFCF93DF93C82FD62FC2
:104D90008CD8882319F0DF91CF91E7CF8C2F37D8AB
:104DA000811101C08D2FDF91CF910895B3DFCB0129
:104DB0000895CF93DF93EB0178D8882319F0DF9122
:104DC000CF91F4CFCE01DF91CF9108950F931F9330
:104DD000CF938091A9049091AA040097E9F0FC0177
:104DE0008F01C1912C2F2F7D81F0C53411F0C53674
:104DF000B9F7F801108270E060E00F945011F801EB
:104E0000C083CF911F910F91089570E060E0CF9122
:104E10001F910F910D94501160E070E0CB01F1CF24
:104E2000CF92DF92EF92FF926A017B013ED88823F6
:104E300029F0FF90EF90DF90CF90C8CFC701B60167
:104E4000FF90EF90DF90CF9008954F925F926F9216
:104E50007F928F929F92AF92BF92CF92DF92EF920A
:104E6000FF921F93CF93DF9300D01F92CDB7DEB791
:104E700019821A821B821C82CE0101964C0182E7A4
:104E8000C82E85E0D82E90EAE92E92E1F92E20EB8B
:104E9000A22E22E1B22E10E088E5810F06D8F4019F
:104EA00081934F01882309F495C090DF2B013C01C9
:104EB000812F0E94DC1E882309F482C0F701208123
:104EC000318142815381C301B2010F94821CF601EA
:104ED00060837183828393831F5FF4E0CF0ED11CC4
:104EE00084E0E80EF11C94E0A90EB11C1330A1F689
:104EF00085E40E94551F8C83882309F476C066DF01
:104F00006B017C0183E00E94DC1E882371F02091FC
:104F1000AC123091AD124091AE125091AF12C70158
:104F2000B6010F94821C6B017C01C0927E05D09269
:104F30007F05E0928005F0928105809186058823A7
:104F400081F08091A41382FF0CC087FD0AC08C8180
:104F5000882339F08981811102C08A8181110F94DF
:104F6000460540E050E0BA0186E45ADF20E030E038
:104F7000A9010F94A91E18167CF428DF20E030E068
:104F800040E752E40F945E1D60936A0270936B02D7
:104F900080936C0290936D020F900F900F900F9082
:104FA000DF91CF911F91FF90EF90DF90CF90BF9056
:104FB000AF909F908F907F906F905F904F900895EB
:104FC000F5012081318142815381C301B2010F94E7
:104FD000811C7DCFF70180819181A281B381F6018F
:104FE00080839183A283B38377CF8091AC12909119
:104FF000AD12A091AE12B091AF1280937E05909346
:105000007F05A0938005B093810597CFCF92DF9263
:10501000EF92FF920F931F93CF93DF936B017A016F
:10502000EC01CD59DB4F28813CE0389F8001399F4E
:10503000100D112427FF24C0FB01118210828881EA
:105040008F5F888388819801280F311D87FD3A95ED
:10505000C90120911E13F6012817190629F024F022
:1050600088818C300CF43CC080819181049680341E
:105070009C4908F475C0F60180819181049672C044
:1050800088819801280F311D87FD3A95C90120912B
:105090001E132817190699F294F28881A801480F67
:1050A000511D87FD5A95FA01EE0FFF1FE40FF51F02
:1050B000EA52FD4E808187FFC2CF8881F801E80F58
:1050C000F11D87FDFA95CF01EE0FFF1FE80FF91FC5
:1050D000EA52FD4E808160E08F770E9428F4AFCFC6
:1050E000808191812881A801420F511D27FD5A9589
:1050F0009A01FA01EE0FFF1FE20FF31FEA52FD4E75
:1051000021813281820F931FF701918380838881EF
:105110009801280F311D87FD3A95F901EE0FFF1F09
:10512000E20FF31FEA52FD4E808187FF20C0888185
:10513000080F111D87FD1A95F801EE0FFF1FE00FF4
:10514000F11FEA52FD4E808161E08F77DF91CF91B0
:105150001F910F91FF90EF90DF90CF900C9428F467
:1051600080E49CE9F701918380838FEF8883DF914E
:10517000CF911F910F91FF90EF90DF90CF90089506
:10518000CF93DF93CDB7DEB720E2488559856F8195
:105190008E810E94A4EFDF91CF9108958091331307
:1051A00090913413891B8F7089F48091640781304A
:1051B00069F09091A41392FB882780F992FF07C0B1
:1051C00097FB882780F991E08927089581E0089569
:1051D0008F929F92AF92BF92EF92FF920F931F9385
:1051E000CF93DF93EC018B01E42EF22E80915913C3
:1051F00090915A138C179D07C9F127ECC437D20739
:1052000009F03FC08951994471F40E944EF56E51E6
:105210007B4F8F4F9F4F6093620570936305809320
:10522000640590936505D0935A13C093591330E0E9
:1052300020E000933A0710933B0720933C073093FC
:105240003D07E0923307F0923407C951D94421F465
:1052500010926C051092610582E08093650281E0F6
:1052600080934A071092690510926805DF91CF91EB
:105270001F910F91FF90EF90BF90AF909F908F90F4
:10528000089529E4C931D20771F68457974CD1F4B7
:105290000E944EF58090620590906305A090640591
:1052A000B0906505681979098A099B0997FF0AC0BA
:1052B000809155078770873029F470DFCEE7D0E9F9
:1052C0008111B1CFC9E1D9E4AECF20E040E070E078
:1052D00060E089E199E47CCFCF930E94D3BB0E9428
:1052E00046A4C82F882319F080E00E9451A38C2F78
:1052F0005AD8CF91EACFCF93DF93C0916105CC23E9
:10530000B1F0C150C093610589E0C89FE00111244C
:10531000C55DDA4F6A817B812F814E8188819981B9
:1053200057DF888580936C05DF91CF910895DF91D9
:10533000CF91CBCFE0916105E63028F581E08E0F6B
:105340008093610540913A0750913B0760913C077B
:1053500070913D07209133079091340780916C053F
:1053600039E0E39FF0011124E55DFA4FA091591354
:10537000B0915A13B183A0834283538364837583AE
:1053800026839783808708957F928F929F92AF9212
:10539000BF92CF92DF92EF92FF920F931F93CF9322
:1053A000DF93FCDE182F0E9497F0C09133070C2F7B
:1053B00085E0782E7C0E85E0F82EFC1A86E0E82E3B
:1053C000EC1A84E0D82EDC1A83E0C82ECC1A82E0D6
:1053D000982E9C1A94EFA92E94E1B92E81E0882E84
:1053E0008C1AC11149C080913507882361F18091E1
:1053F0006502882361F0602F619581E09091350707
:10540000911180E024E04AE655E10E94A4EF1111D9
:105410008DC1C53009F01CC180913507853009F474
:10542000B7C080916502882361F081E090913507D3
:10543000953009F080E023E047E255E16F2D0E94AE
:10544000A4EFD7E074C18091200710922007882331
:1054500071F251DF80914A07882349F2DF91CF91A1
:105460001F910F91FF90EF90DF90CF90BF90AF9082
:105470009F908F907F900895C13069F58091350796
:105480008130C9F080916502882309F4C0CF1F9252
:1054900089E595E19F938F938F9281E090913507F5
:1054A000913009F080E08F936BDE0F900F900F909A
:1054B0000F900F90ACCF8091200710922007882387
:1054C00009F3B0921207A0921107FFDE80914A07FC
:1054D0008823C1F2C3CFC23009F00BC180913507D8
:1054E000823099F080916502882361F081E090918B
:1054F0003507923009F080E023E04EE455E1692D54
:105500000E94A4EF111112C19CCF8091200710922C
:105510002007882339F387E396E30E944CC38091E8
:105520004A078823F9F29ACF80913507833081F0BA
:1055300080916502882309F4F6C081E090913507D7
:10554000933009F080E023E041E455E16C2DD8CFA1
:105550008091200710922007882351F386E098E37A
:105560000E944CC380914A07882311F377CF809122
:10557000200710922007882309F4C6C08AEE9AE318
:105580000E944CC380914A07882309F4BDC066CFAE
:105590008091200710922007882309F442CF85E8E4
:1055A0009CE30E944CC380914A07882309F439CFB9
:1055B00055CF8091200710922007882309F450C00E
:1055C00080EF9DE30E944CC380914A07882309F431
:1055D00047C044CF8091200710922007882309F408
:1055E000ADC08FE19FE30E944CC380914A0788239E
:1055F00009F4A4C033CF809120071092200788239C
:1056000009F449C08EE690E40E944CC380914A0799
:10561000882309F440C022CF8091200710922007F0
:10562000882309F451C086DE20E040E070E060E0AD
:1056300083EE9FE2DF91CF911F910F91FF90EF904A
:10564000DF90CF90BF90AF909F908F907F90C0CD14
:10565000C63009F0F6CE80913507863009F4A9CF1F
:1056600080916502882309F4ECCE81E090913507A2
:10567000963009F080E023E04EE155E16E2D0E9466
:10568000A4EFD7E081E08D0F8C1315C08091350712
:105690008C1709F4B0CF80916502882361F06C2FDC
:1056A000601B81E0909135079C1380E023E048E087
:1056B00055E10E94A4EF82E08D0F8C1313C09091EE
:1056C00035079C1709F4A8CF80916502882351F013
:1056D0006C2F601B81E09C1380E023E049EF54E1D4
:1056E0000E94A4EFCF5FC7117CCEDD5FD09334075B
:1056F000B5CEC33009F418CFC43009F088CE8091FC
:105700003507843009F433CF80916502882359F03E
:1057100081E090913507943009F080E023E047E381
:1057200055E16D2DEDCE112309F492CFD5E0DC13B8
:10573000A9CF809135078D1709F44CCF8091650270
:10574000882309F49FCF6C2F601B81E0909135076F
:105750009C1380E023E042E155E10E94A4EF92CF48
:105760008093270720E040E070E060E081E090E374
:105770002FCDCF93DF93CDB7DEB78E819091981068
:10578000891768F0809398109E01275F3F4F4F81E3
:1057900058856AE270E08DE690E10F947A15DF910A
:1057A000CF9108950F931F93CF93DF938C016F3F99
:1057B00019F41092981060E020919810862F062E10
:1057C000000C990B2817190609F0F4F4609398104F
:1057D000C8010F940115800F911FEC01C01BD10B64
:1057E000CB32D1053CF00197FC012491207C20387C
:1057F000D1F3F3CFDD27AE01B8018DE690E10F9430
:105800002215C359DF4E1882DF91CF911F910F915E
:105810000895CF9380912305811109C08FED92E106
:10582000909367058093660581E08093230582DD70
:1058300020E040E070E060E08EED91E2C9DCC1E084
:10584000C0936C050E94B3A710926C0554DDC09301
:105850006C0560E08AEA98E3A5DF8BED92E1909316
:10586000120780931107CF9108951092220510928C
:1058700064028091A41380688093A41360E087EC95
:1058800092E190DF22CD0F931F930E944EF500917D
:105890001E0510911F052091200530912105601BE8
:1058A000710B820B930B97FD0EC086B186FB882788
:1058B00080F991E08927349B8260079B02C0329B6C
:1058C000846080931D0580911D05817090911D0558
:1058D00091FD826090911C05981749F0813009F183
:1058E00048F0823079F0833091F080931C051F914D
:1058F0000F910895913079F09230B9F790911B058E
:1059000091500CC0992339F09330C1F3EECF913010
:10591000A9F3923051F790911B059F5F90931B055F
:10592000E4CF992359F3933001F7F5CFCF92DF926B
:10593000EF92FF92CF93C82F0E944EF56B017C012E
:1059400024EA30E74DE75FE3609130027091310265
:1059500080913202909133020F94B21587FD18C0E6
:105960008AEF90E0A0E0B0E08C0D9D1DAE1DBF1D44
:1059700080930B0590930C05A0930D05B0930E0535
:10598000C0932602CF91FF90EF90DF90CF900895C3
:1059900080E090E0DC01E8CFD9D83E98469A3C9868
:1059A000449A3A98429A0F98179A6DDF10921B0505
:1059B0000895FC0180E0309749F09491992331F0EB
:1059C000907C903809F08F5F3196F7CF0895AF92B1
:1059D000BF92CF92DF92EF92FF920F931F93CF93DC
:1059E000DF93EC015B018A01FB01199587FD16C06D
:1059F000C82ED12CF12CE12C2196F801C082D18245
:105A0000E282F382CE01DF91CF911F910F91FF903F
:105A1000EF90DF90CF90BF90AF900895982F907E39
:105A2000903CA9F48F7190E0B0E0A0E06C017D01A2
:105A300056E0CC0CDD1CEE1CFF1C5A95D1F7CE01B4
:105A40000196F50119958F73C82A2296D6CF982F03
:105A5000907F903E11F58F7090E0B0E0A0E06C0177
:105A60007D0136E0CC0CDD1CEE1CFF1C3A95D1F715
:105A7000CE010196F50119958F73C82A46E0CC0C2A
:105A8000DD1CEE1CFF1C4A95D1F7CE010296F501F4
:105A900019958F73C82A2396B0CF982F987F903F7F
:105AA00079F5877090E0B0E0A0E06C017D0186E0C0
:105AB000CC0CDD1CEE1CFF1C8A95D1F7CE010196A3
:105AC000F50119958F73C82A96E0CC0CDD1CEE1CED
:105AD000FF1C9A95D1F7CE010296F50119958F73A7
